:100000000C942A000C9434000C9434000C943400AA
:100010000C9434000C9434000C9434000C94340090
:100020000C9434000C9434000C9434000C94340080
:100030000C9434000C9434000C9434000C94340070
:100040000C9434000C9434000C9434000C94340060
:100050000C94340011241FBECFE5D4E0DEBFCDBF29
:100060000E9462000C9478000C940000DF93CF9300
:10007000CDB7DEB789E290E027E6FC01208380E47B
:1000800090E0FC01108280E490E026E8FC012083EF
:100090008AE290E028E1FC012083CF91DF9108956E
:1000A000DF93CF93CDB7DEB700008BE290E0FC0189
:1000B00080818823D4F78CE290E0FC018081CF918D
:1000C000DF910895DF93CF930F92CDB7DEB787E32B
:1000D00090E02FEFFC0120830E94360019820E94DD
:1000E0005000898388E390E02981FC012083F7CFC9
:0400F000F894FFCFB2
:00000001FF
