:100000000C942A000C9434000C9434000C943400AA
:100010000C9434000C9434000C9434000C94340090
:100020000C9434000C9434000C9434000C94340080
:100030000C9434000C9434000C9434000C94340070
:100040000C9434000C9434000C9434000C94340060
:100050000C94340011241FBECFE5D4E0DEBFCDBF29
:100060000E9436000C9454000C940000DF93CF9350
:10007000CDB7DEB78AE390E0FC01108287E390E021
:100080002FEFFC01208389E390E0FC018081813027
:1000900031F488E390E02FEFFC012083F4CF88E374
:0C00A00090E0FC011082EFCFF894FFCF3D
:00000001FF
