:100000000C942A000C9434000C9434000C943400AA
:100010000C9434000C9434000C9434000C94340090
:100020000C9434000C9434000C9434000C94340080
:100030000C9434000C9434000C9434000C94340070
:100040000C9434000C9434000C9434000C94340060
:100050000C94340011241FBECFE5D4E0DEBFCDBF29
:100060000E9436000C9458000C940000DF93CF934C
:10007000CDB7DEB78AE390E0FC01108287E390E021
:100080002FEFFC01208389E390E0FC018081882F21
:1000900090E081709070882331F088E390E021E057
:1000A000FC012083F0CF88E390E0FC011082EBCFCD
:0400B000F894FFCFF2
:00000001FF
