:100000000C942A000C9434000C9434000C943400AA
:100010000C9434000C9434000C9434000C94340090
:100020000C9434000C9434000C9434000C94340080
:100030000C9434000C9434000C9434000C94340070
:100040000C9434000C9434000C9434000C94340060
:100050000C94340011241FBECFE5D4E0DEBFCDBF29
:100060000E9436000C945C000C940000DF93CF9348
:10007000CDB7DEB78AE390E0FC01108287E390E021
:100080002FEFFC01208301C0000089E390E0FC0118
:1000900080818130C9F7000089E390E0FC01808114
:1000A0008130D1F388E390E028E330E0F90120814A
:0C00B0002095FC012083E9CFF894FFCFDD
:00000001FF
