:100000000C942A000C943F000C943F000C943F0089
:100010000C943F000C943F000C943F000C943F0064
:100020000C943F000C943F000C943F000C943F0054
:100030000C943F000C943F000C943F000C943F0044
:100040000C943F000C943F000C943F000C943F0034
:100050000C943F0011241FBECFE5D4E0DEBFCDBF1E
:1000600010E0A0E6B0E0E8EAF6E102C005900D92EB
:10007000A637B107D9F70E941B050C94520B0C94BC
:1000800000000F931F93DF93CF93CDB7DEB7E997AF
:100090000FB6F894DEBF0FBECDBF89AF82E390E00C
:1000A00029AD207FFC01208382E390E022E330E051
:1000B000F90120812460FC01208380E090E0A0E829
:1000C000BFE389839A83AB83BC8369817A818B8107
:1000D0009C8120E030E04AE755E40E94AF07DC0154
:1000E000CB018D839E83AF83B88711E06D817E81C4
:1000F0008F81988520E030E040E85FE30E940909A5
:1001000088230CF010E0112329F081E090E09A8719
:10011000898746C011E06D817E818F81988520E0BE
:100120003FEF4FE757E40E94A90818160CF010E0C3
:10013000112361F169817A818B819C8120E030E01B
:1001400040E251E40E94AF07DC01CB01BC01CD01CC
:100150000E94DB05DC01CB019A87898712C080E908
:1001600091E09C878B878B859C858C01C8010197CA
:10017000F1F78C011C870B8789859A8501979A87EF
:10018000898789859A85009751F717C06D817E818F
:100190008F8198850E94DB05DC01CB019A878987D6
:1001A00089859A859E878D878D859E858C01F8012E
:1001B0003197F1F78F011E870D8782E390E022E3EC
:1001C00030E0F9012081207FFC01208380E090E075
:1001D000A0E8BFE38F87988BA98BBA8B6F8578894E
:1001E00089899A8920E030E04AE755E40E94AF0708
:1001F000DC01CB018B8B9C8BAD8BBE8B11E06B89B3
:100200007C898D899E8920E030E040E85FE30E9490
:10021000090988230CF010E0112329F081E090E017
:10022000988F8F8B46C011E06B897C898D899E8960
:1002300020E03FEF4FE757E40E94A90818160CF0A2
:1002400010E0112361F16F85788989899A8920E00E
:1002500030E040E251E40E94AF07DC01CB01BC0179
:10026000CD010E94DB05DC01CB01988F8F8B12C082
:1002700080E991E09A8F898F898D9A8D8C01C801D0
:100280000197F1F78C011A8F098F8F89988D01974B
:10029000988F8F8B8F89988D009751F717C06B8936
:1002A0007C898D899E890E94DB05DC01CB01988FBA
:1002B0008F8B8F89988D9C8F8B8F8B8D9C8D8C01D4
:1002C000F8013197F1F78F011C8F0B8F82E390E0DB
:1002D00029AD222F30E022953295307F3227207FC2
:1002E0003227FC01208382E390E022E330E0F90131
:1002F00020812460FC01208380E090E0A0E8BFE33F
:100300008D8F9E8FAF8FB8A36D8D7E8D8F8D98A1B1
:1003100020E030E04AE755E40E94AF07DC01CB0162
:1003200089A39AA3ABA3BCA311E069A17AA18BA175
:100330009CA120E030E040E85FE30E9409098823A7
:100340000CF010E0112329F081E090E09EA38DA332
:1003500046C011E069A17AA18BA19CA120E03FEFEA
:100360004FE757E40E94A90818160CF010E011237B
:1003700061F16D8D7E8D8F8D98A120E030E040E29F
:1003800051E40E94AF07DC01CB01BC01CD010E940A
:10039000DB05DC01CB019EA38DA312C080E991E0B7
:1003A00098A78FA38FA198A58C01C8010197F1F799
:1003B0008C0118A70FA38DA19EA101979EA38DA3C9
:1003C0008DA19EA1009751F717C069A17AA18BA1B9
:1003D0009CA10E94DB05DC01CB019EA38DA38DA116
:1003E0009EA19AA789A789A59AA58C01F8013197A2
:1003F000F1F78F011AA709A782E390E022E330E02A
:10040000F9012081207FFC01208380E090E0A0E8BA
:10041000BFE38BA79CA7ADA7BEA76BA57CA58DA5A9
:100420009EA520E030E04AE755E40E94AF07DC01DA
:10043000CB018FA798ABA9ABBAAB11E06FA578A998
:1004400089A99AA920E030E040E85FE30E94090909
:1004500088230CF010E0112329F081E090E09CABA0
:100460008BAB46C011E06FA578A989A99AA920E0B5
:100470003FEF4FE757E40E94A90818160CF010E070
:10048000112361F16BA57CA58DA59EA520E030E030
:1004900040E251E40E94AF07DC01CB01BC01CD0179
:1004A0000E94DB05DC01CB019CAB8BAB12C080E969
:1004B00091E09EAB8DAB8DA99EA98C01C8010197DF
:1004C000F1F78C011EAB0DAB8BA99CA901979CABDE
:1004D0008BAB8BA99CA9009751F717C06FA578A982
:1004E00089A99AA90E94DB05DC01CB019CAB8BABEF
:1004F0008BA99CA998AF8FAB8FA998AD8C01F801FF
:100500003197F1F78F0118AF0FABE9960FB6F8945A
:10051000DEBF0FBECDBFCF91DF911F910F91089528
:100520000F931F93DF93CF93CDB7DEB7E9970FB645
:10053000F894DEBF0FBECDBF89AF82E390E029AD56
:10054000207FFC01208382E390E022E330E0F90188
:1005500020812560FC01208380E090E0A0E8BFE3DB
:1005600089839A83AB83BC8369817A818B819C81E7
:1005700020E030E04AE755E40E94AF07DC01CB0100
:100580008D839E83AF83B88711E06D817E818F81DB
:10059000988520E030E040E85FE30E940909882365
:1005A0000CF010E0112329F081E090E09A87898710
:1005B00046C011E06D817E818F81988520E03FEFFC
:1005C0004FE757E40E94A90818160CF010E0112319
:1005D00061F169817A818B819C8120E030E040E289
:1005E00051E40E94AF07DC01CB01BC01CD010E94A8
:1005F000DB05DC01CB019A87898712C080E991E095
:100600009C878B878B859C858C01C8010197F1F7AE
:100610008C011C870B8789859A8501979A87898722
:1006200089859A85009751F717C06D817E818F81EA
:1006300098850E94DB05DC01CB019A878987898533
:100640009A859E878D878D859E858C01F8013197CF
:10065000F1F78F011E870D8782E390E022E330E0FF
:10066000F9012081217FFC01208380E090E0A0E857
:10067000BFE38F87988BA98BBA8B6F85788989891F
:100680009A8920E030E04AE755E40E94AF07DC0198
:10069000CB018B8B9C8BAD8BBE8B11E06B897C89E6
:1006A0008D899E8920E030E040E85FE30E940909DF
:1006B00088230CF010E0112329F081E090E0988F5E
:1006C0008F8B46C011E06B897C898D899E8920E0E3
:1006D0003FEF4FE757E40E94A90818160CF010E00E
:1006E000112361F16F85788989899A8920E030E04A
:1006F00040E251E40E94AF07DC01CB01BC01CD0117
:100700000E94DB05DC01CB01988F8F8B12C080E942
:1007100091E09A8F898F898D9A8D8C01C8010197FC
:10072000F1F78C011A8F098F8F89988D0197988F17
:100730008F8B8F89988D009751F717C06B897C89B3
:100740008D899E890E94DB05DC01CB01988F8F8B00
:100750008F89988D9C8F8B8F8B8D9C8D8C01F80150
:100760003197F1F78F011C8F0B8F82E390E029AD59
:10077000222F30E022953295307F3227207F32279A
:10078000FC01208382E390E022E330E0F901208144
:100790002560FC01208380E090E0A0E8BFE38D8F1E
:1007A0009E8FAF8FB8A36D8D7E8D8F8D98A120E029
:1007B00030E04AE755E40E94AF07DC01CB0189A392
:1007C0009AA3ABA3BCA311E069A17AA18BA19CA1C0
:1007D00020E030E040E85FE30E94090988230CF044
:1007E00010E0112329F081E090E09EA38DA346C084
:1007F00011E069A17AA18BA19CA120E03FEF4FE716
:1008000057E40E94A90818160CF010E0112361F1BA
:100810006D8D7E8D8F8D98A120E030E040E251E417
:100820000E94AF07DC01CB01BC01CD010E94DB05BA
:10083000DC01CB019EA38DA312C080E991E098A7B3
:100840008FA38FA198A58C01C8010197F1F78C01A6
:1008500018A70FA38DA19EA101979EA38DA38DA183
:100860009EA1009751F717C069A17AA18BA19CA105
:100870000E94DB05DC01CB019EA38DA38DA19EA16F
:100880009AA789A789A59AA58C01F8013197F1F754
:100890008F011AA709A782E390E022E330E0F90173
:1008A0002081217FFC01208380E090E0A0E8BFE36D
:1008B0008BA79CA7ADA7BEA76BA57CA58DA59EA564
:1008C00020E030E04AE755E40E94AF07DC01CB01AD
:1008D0008FA798ABA9ABBAAB11E06FA578A989A98E
:1008E0009AA920E030E040E85FE30E9409098823EC
:1008F0000CF010E0112329F081E090E09CAB8BAB71
:1009000046C011E06FA578A989A99AA920E03FEF18
:100910004FE757E40E94A90818160CF010E01123C5
:1009200061F16BA57CA58DA59EA520E030E040E29D
:1009300051E40E94AF07DC01CB01BC01CD010E9454
:10094000DB05DC01CB019CAB8BAB12C080E991E0F5
:100950009EAB8DAB8DA99EA98C01C8010197F1F7C3
:100960008C011EAB0DAB8BA99CA901979CAB8BABEB
:100970008BA99CA9009751F717C06FA578A989A9E1
:100980009AA90E94DB05DC01CB019CAB8BAB8BA948
:100990009CA998AF8FAB8FA998AD8C01F8013197C6
:1009A000F1F78F0118AF0FABE9960FB6F894DEBFE1
:1009B0000FBECDBFCF91DF911F910F910895DF93AF
:1009C000CF93CDB7DEB782E00E94410088E20E945B
:1009D00041008CE00E94410086E00E944100CF91DE
:1009E000DF910895DF93CF9300D00F92CDB7DEB79C
:1009F0009B838A8319820EC08981882F90E02A8187
:100A00003B81820F931FFC0180810E9490028981AB
:100A10008F5F89838981882F90E02A813B81820FB3
:100A2000931FFC018081882339F70F900F900F905E
:100A3000CF91DF910895DF93CF9300D000D000D005
:100A4000CDB7DEB78AE390E02EE7FC01208387E391
:100A500090E02FEFFC01208384E390E02FEFFC0176
:100A6000208381E390E02FEFFC0120838BE390E073
:100A700021E4FC0120830E94DF041A8219821C8277
:100A80001B821E821D8203C0000001C0000089E39A
:100A900090E0FC018081882F90E081709070009739
:100AA00009F042C0000089E390E0FC018081882FBA
:100AB00090E0817090700097B1F388E390E021E0BE
:100AC000FC01208389819A8101969A83898381E838
:100AD0000E94410080E690E00E94F20482EC0E94B5
:100AE000410089810E94900285E80E94410083E6CE
:100AF00090E00E94F20429813A818B819C81A901B6
:100B0000481B590BCA019E838D838D819E81992339
:100B10005CF088EC0E9441008D810E94900285E388
:100B200090E02D81FC01208389E390E0FC0180812D
:100B300088230CF4A9CF000089E390E0FC018081B8
:100B40008823D4F788E390E020E8FC0120838B81A0
:100B50009C8101969C838B838DE80E9441008AE6EC
:100B600090E00E94F2048FEC0E9441008B810E9471
:100B7000900285E80E94410083E690E00E94F20422
:100B800029813A818B819C81A901481B590BCA019B
:100B90009E838D838D819E8199230CF477CF88EC81
:100BA0000E9441008D810E94900285E390E02D819A
:100BB000FC0120836CCFEF92FF920F931F937B0178
:100BC0008C0120E030E040E05FE40E94D90887FD1E
:100BD00011C0C801B70120E030E040E05FE40E94AE
:100BE0007E070E9439099B01AC01205030404040F3
:100BF000504806C0C801B7010E9439099B01AC01E9
:100C0000B901CA011F910F91FF90EF900895A0E0E4
:100C1000B0E0EDE0F6E00C941F0BFC01EA018081EE
:100C2000823008F438C1DB019C91923008F430C165
:100C3000843059F4943009F02EC1918111968C9131
:100C40001197981709F021C126C1943009F420C1E9
:100C50009230B1F4823009F01EC1CA01AF0128E020
:100C6000DA010D90AD01DC010D92CD012150C1F7EB
:100C7000DB0111968C9111979181892389830AC197
:100C8000823009F405C1C280D380DB0112966D90D9
:100C90007C90139724813581468157811496ED907D
:100CA000FD900D911C911797C601861997095C015B
:100CB00097FF04C0AA24BB24A81AB90AB0E2AB1655
:100CC000B1040CF061C0181619066CF53701480123
:100CD0000A2C04C096948794779467940A94D2F768
:100CE00081E090E0A0E0B0E00A2C04C0880F991FDA
:100CF000AA1FBB1F0A94D2F70197A109B1098E213F
:100D00009F21A023B123EE24FF248701E3940097C1
:100D1000A105B10519F4EE24FF248701E628F72880
:100D2000082919293CC00097D1F1CA0CDB1C3901F4
:100D30004A010A2C04C096948794779467940A9485
:100D4000D2F781E090E0A0E0B0E00A2C04C0880F68
:100D5000991FAA1FBB1F0A94D2F70197A109B109D5
:100D600082239323A423B52321E030E040E050E028
:100D70000097A105B10519F420E030E0A90126296A
:100D80003729482959290BC06C147D0424F4EE241A
:100D9000FF24870104C0630120E030E0A9018181C4
:100DA000FB019181891709F445C0882349F0D801D6
:100DB000C701821B930BA40BB50B9C01AD0104C0B2
:100DC0002E193F09400B510B57FD04C01982DB82DD
:100DD000CA820BC081E08983DB82CA82509540952C
:100DE000309521953F4F4F4F5F4F2C833D834E836E
:100DF0005F830DC0880F991FAA1FBB1F8C839D8323
:100E0000AE83BF838A819B8101979B838A838C8178
:100E10009D81AE81BF819C01AD0121503040404099
:100E200050402F3FEFEF3E07EFEF4E07EFE35E0737
:100E300008F30BC08983DB82CA822E0D3F1D401F41
:100E4000511F2C833D834E835F8383E088832C81F5
:100E50003D814E815F8157FF1DC0DA01C90181705C
:100E60009070A070B0705695479537952795822B56
:100E7000932BA42BB52B8C839D83AE83BF838A8158
:100E80009B8101969B838A8305C0EEE6F0E003C058
:100E9000FB0101C0FE01CF01CDB7DEB7EEE00C943F
:100EA0003B0BA0E2B0E0E7E5F7E00C94270B698389
:100EB0007A838B839C832D833E834F83588789E07D
:100EC000E82EF12CEC0EFD1ECE010196B7010E941A
:100ED000590A8E010F5E1F4FCE010596B8010E9480
:100EE000590AC701B801AE01475E5F4F0E9407066D
:100EF0000E948B09A096E6E00C94430BA0E2B0E0C0
:100F0000E4E8F7E00C94270B69837A838B839C8356
:100F10002D833E834F8358878E01075F1F4FCE017D
:100F20000196B8010E94590A91E1E92EF12CEC0ECC
:100F3000FD1ECE010596B7010E94590A8A8991E0EB
:100F400089278A8BC801B701AE01475E5F4F0E94B7
:100F500007060E948B09A096E6E00C94430BA0E2E2
:100F6000B0E0E5EBF7E00C941B0B69837A838B838D
:100F70009C832D833E834F835887CE010196BE010B
:100F8000675F7F4F0E94590ACE010596BE016F5ED2
:100F90007F4F0E94590A9985923078F08989823072
:100FA000C0F0943019F4823041F4CBC0843019F48D
:100FB000923079F4C6C0923051F481E02A859A8942
:100FC000291709F480E08A87CE010996BCC08230D7
:100FD00051F481E02A859A89291709F480E08A8BE7
:100FE000CE014196B0C06D847E848F849888ED8850
:100FF000FE880F89188DE0E2F0E080E090E0DC01EF
:10100000AA24BB24650120E030E0A901B30161708E
:10101000707061157105D1F02E0D3F1D401F511FDD
:1010200015012601280E391E4A1E5B1E81E090E044
:10103000A0E0B0E02E153F054007510718F080E012
:1010400090E0DC01820D931DA41DB51DAA0CBB1CF4
:10105000CC1CDD1C17FF09C061E0262E312C412C71
:10106000512CA228B328C428D528319749F0EE0C7A
:10107000FF1C001F111F9694879477946794C6CF26
:101080006B897C89EB85FC856E0F7F1F6E5F7F4FC0
:101090007C8F6B8F61E0EA857A89E71709F460E05D
:1010A0006A8F6B8D7C8D10C0FC01E170F070309701
:1010B00029F056954795379527955068B695A79589
:1010C000979587956F5F7F4FB7FDEECF0CC0880F68
:1010D000991FAA1FBB1F57FD8160220F331F441F9A
:1010E000551F615070408030E0E09E07E0E0AE07A1
:1010F000E0E4BE0760F36B8F7C8F6FE7E62EF12C88
:10110000012D112DE822F9220A231B2360E4E616A3
:10111000F1040105110561F487FD0AC021153105AF
:101120004105510529F0805C9F4FAF4FBF4F80783C
:101130008D8F9E8FAF8FB8A383E0898FCE014996A4
:1011400002C08EE690E00E948B09A096E2E10C942A
:10115000370BA8E1B0E0EFEAF8E00C94270B6983C5
:101160007A838B839C832D833E834F8358878E01A4
:10117000075F1F4FCE010196B8010E94590A81E115
:10118000E82EF12CEC0EFD1ECE010596B7010E9453
:10119000590A8985823040F08989823028F0C80157
:1011A000B7010E94C20A01C08FEF6896E6E00C9476
:1011B000430BA8E1B0E0EFEDF8E00C94270B698356
:1011C0007A838B839C832D833E834F8358878E0144
:1011D000075F1F4FCE010196B8010E94590A81E1B5
:1011E000E82EF12CEC0EFD1ECE010596B7010E94F3
:1011F000590A8985823040F08989823028F0C801F7
:10120000B7010E94C20A01C08FEF6896E6E00C9415
:10121000430BA8E1B0E0EFE0F9E00C94270B698301
:101220007A838B839C832D833E834F8358878E01E3
:10123000075F1F4FCE010196B8010E94590A81E154
:10124000E82EF12CEC0EFD1ECE010596B7010E9492
:10125000590A8985823040F08989823028F0C80196
:10126000B7010E94C20A01C081E06896E6E00C94D2
:10127000430BACE0B0E0EFE3F9E00C942B0B698397
:101280007A838B839C83CE010196BE016B5F7F4F77
:101290000E94590A8D81823081F1823070F1843050
:1012A00021F48E81882369F10AC02F81388537FDAA
:1012B00024C06E812F3131053CF0662311F120E00E
:1012C00030E040E050E821C08EE190E0821B930BBB
:1012D00029853A854B855C8504C056954795379599
:1012E00027958A95D2F7662381F0509540953095E1
:1012F00021953F4F4F4F5F4F08C020E030E0A901DC
:1013000004C02FEF3FEF4FEF5FE7B901CA012C9602
:10131000E2E00C94470BEF92FF920F931F93CF9351
:10132000DF93FC0124813581468157816181808171
:10133000823020F44061EFEFF0E0A3C0843009F484
:101340009BC0823009F492C0211531054105510539
:1013500009F48FC00280F381E02D8FEFE238F807A7
:101360000CF05AC0C2E8DFEFCE1BDF0BCA31D1054B
:101370006CF579018A010C2E04C016950795F79437
:10138000E7940A94D2F781E090E0A0E0B0E00C2E60
:1013900004C0880F991FAA1FBB1F0A94D2F7019798
:1013A000A109B10982239323A423B52321E030E0CE
:1013B00040E050E00097A105B10519F420E030E0CD
:1013C000A9012E293F29402B512B03C020E030E0FA
:1013D000A901DA01C9018F779070A070B0708034D4
:1013E0009105A105B10539F427FF09C0205C3F4FE5
:1013F0004F4F5F4F04C0215C3F4F4F4F5F4FE1E0C5
:10140000F0E0203080E0380780E0480780E45807AB
:1014100028F5E0E0F0E022C0E038F1056CF5E15895
:10142000FF4FDA01C9018F779070A070B0708034DF
:101430009105A105B10539F427FF09C0205C3F4F94
:101440004F4F5F4F04C0215C3F4F4F4F5F4F57FFDF
:1014500005C05695479537952795319687E056955F
:101460004795379527958A95D1F70BC0E0E0F0E0D6
:1014700005C0E0E0F0E005C0EFEFF0E020E030E094
:10148000A9018E2F879588278795942F9F77679539
:1014900066276795E695E22EA92FA82BFE2FF62B3F
:1014A000622F732F8A2F9F2FCDB7DEB7E6E00C9403
:1014B000430BDC01FB012C9111963C911197129684
:1014C0008C911297482F4F7750E0982F991F9927AA
:1014D000991F13966C911397862F880F892B90E094
:1014E000661F6627661F6183009739F52115310550
:1014F0004105510511F482E029C082E89FEF9383F2
:10150000828367E0220F331F441F551F6A95D1F76E
:1015100083E0808309C0220F331F441F551F82813F
:101520009381019793838283203080E0380780E0A5
:10153000480780E4580778F320C08F3F910579F47D
:10154000211531054105510519F484E08083089582
:1015500044FF03C081E0808310C010820EC08F570B
:1015600090409383828383E0808387E0220F331F40
:10157000441F551F8A95D1F75064248335834683D1
:1015800057830895FC01DB019081923008F449C033
:101590008C91823008F445C0943051F461818430DC
:1015A000B1F511962C91119730E0261B310941C0FD
:1015B000843021F0923041F48230B1F111968C9157
:1015C00011978823A1F12DC06181823001F111961C
:1015D0008C9111976817D9F42281338112968D91DD
:1015E0009C9113978217930794F028173907BCF042
:1015F000248135814681578114968D919D910D905E
:10160000BC91A02D82179307A407B50718F4662391
:1016100041F00DC0281739074A075B0728F46623F5
:1016200031F021E030E005C020E030E002C02FEFD3
:101630003FEFC90108952F923F924F925F926F92B0
:101640007F928F929F92AF92BF92CF92DF92EF9252
:10165000FF920F931F93CF93DF93CDB7DEB7CA1BD3
:10166000DB0B0FB6F894DEBF0FBECDBF09942A88FE
:10167000398848885F846E847D848C849B84AA84A6
:10168000B984C884DF80EE80FD800C811B81AA8133
:10169000B981CE0FD11D0FB6F894DEBF0FBECDBFFE
:0816A000ED010895F894FFCF5D
:1016A800494E00494E20422F57004F555400000024
:0616B8000000000000002C
:00000001FF
